:100000000C9462000C948A000C948A000C948A0070
:100010000C948A000C948A000C948A000C948A0038
:100020000C948A000C948A000C948A000C948A0028
:100030000C948A000C948A000C948A000C948A0018
:100040000C94B4020C948A000C9482020C945C020E
:100050000C948A000C948A000C948A000C948A00F8
:100060000C948A000C948A000000000023002600F3
:10007000290000000008000201000003040700003E
:1000800000000000000000000000250028002B00F8
:1000900000000000240027002A00040404040404D3
:1000A0000404020202020202030303030303010227
:1000B00004081020408001020408102001020408F6
:1000C0001020FE0211241FBECFEFD8E0DEBFCDBF4F
:1000D00021E0ACE2B1E001C01D92A43FB207E1F71C
:1000E00011E0A0E0B1E0E0EEFFE002C005900D926B
:1000F000AC32B107D9F710E0C2E6D0E004C02197D6
:10010000FE010E94DC05C136D107C9F70E94A00399
:100110000C94EE070C940000CF92DF92EF92FF92C6
:100120000F931F93CF93DF936C017A018B01C0E093
:10013000D0E0CE15DF0589F0D8016D918D01D60193
:10014000ED91FC910190F081E02DC6010995892B7C
:1001500011F47E0102C02196ECCFC701DF91CF914F
:100160001F910F91FF90EF90DF90CF900895089529
:1001700080E090E00895FC01538D448D252F30E000
:10018000842F90E0821B930B541710F0CF960895A4
:1001900001970895FC01918D828D981761F0828DF1
:1001A000DF01A80FB11D5D968C91928D9F5F9F73AB
:1001B000928F90E008958FEF9FEF0895FC01918D4D
:1001C000828D981731F0828DE80FF11D858D90E0BA
:1001D00008958FEF9FEF0895FC01918D228D892F57
:1001E00090E0805C9F4F821B91098F73992708953F
:1001F00081E491E00E94EC0021E0892B09F420E0E9
:10020000822F0895FC01848DDF01A80FB11DA35A30
:10021000BF4F2C91848D90E001968F739927848F26
:10022000A689B7892C93A089B1898C9180648C931D
:10023000938D848D981306C00288F389E02D808108
:100240008F7D80830895EF92FF920F931F93CF933A
:10025000DF93EC0181E0888F9B8D8C8D981305C016
:10026000E889F989808185FD24C0F62E0B8D10E088
:100270000F5F1F4F0F731127E02E8C8DE8120CC0FB
:100280000FB607FCFACFE889F989808185FFF5CFA1
:10029000CE010E940201F1CF8B8DFE01E80FF11D0E
:1002A000E35AFF4FF0820B8FEA89FB8980818062DD
:1002B00007C0EE89FF896083E889F98980818064BD
:1002C000808381E090E0DF91CF911F910F91FF90AB
:1002D000EF900895CF93DF93EC01888D8823C9F0C8
:1002E000EA89FB89808185FD05C0A889B9898C913F
:1002F00086FD0FC00FB607FCF5CF808185FFF2CFDA
:10030000A889B9898C9185FFEDCFCE010E940201A9
:10031000E7CFDF91CF91089580E090E0892B29F01D
:100320000E94F80081110C9400000895833081F040
:1003300028F4813099F08230A1F008958730A9F037
:100340008830B9F08430D1F4809180008F7D03C073
:10035000809180008F7780938000089584B58F7797
:1003600002C084B58F7D84BD08958091B0008F77E1
:1003700003C08091B0008F7D8093B00008951F93DB
:10038000CF93DF93EEE7F0E09491EAEBF0E0D491C5
:10039000E6EAF0E0C491CC23D9F0182F992319F0A4
:1003A000892F0E949601EC2FF0E0EE0FFF1FEA5715
:1003B000FF4FA591B4918FB7F894111105C09C918E
:1003C000ED2FE095E92302C0EC91ED2BEC938FBF6C
:1003D000DF91CF911F910895CF93DF93282F30E0C5
:1003E000F901EE58FF4F8491F901E255FF4FD49186
:1003F000F901E656FF4FC491CC2391F081110E9480
:100400009601EC2FF0E0EE0FFF1FE859FF4FA5918A
:10041000B491EC91ED2381E090E021F480E002C002
:1004200080E090E0DF91CF9108952FB7F89460912C
:1004300031017091320180913301909134012FBFCD
:1004400008950E94D9070F931F93CF93DF93EC0178
:1004500088819981009729F02A813B8126173707E7
:1004600088F48B016F5F7F4F0E940F07009761F048
:10047000998388831B830A832C813D81232B11F46C
:10048000FC01108281E001C080E0DF91CF911F91DB
:100490000F910895CF93DF93EC01888199810097A4
:1004A00011F00E947706198218821D821C821B821D
:1004B0001A82DF91CF9108951F920F920FB60F927B
:1004C00011242F933F934F935F936F937F938F9359
:1004D0009F93AF93BF93EF93FF9381E491E00E94CA
:1004E0000201FF91EF91BF91AF919F918F917F9109
:1004F0006F915F914F913F912F910F900FBE0F9091
:100500001F9018951F920F920FB60F9211242F93E0
:100510008F939F93EF93FF93E0915101F0915201DC
:100520008081E0915701F091580182FD12C09081C5
:1005300080915A018F5F8F7320915B01821751F078
:10054000E0915A01F0E0EF5BFE4F958F80935A01E6
:1005500001C08081FF91EF919F918F912F910F901A
:100560000FBE0F901F9018951F920F920FB60F920B
:1005700011242F933F938F939F93AF93BF938091B9
:10058000310190913201A0913301B0913401309149
:10059000300123E0230F2D3720F40196A11DB11D5A
:1005A00005C026E8230F0296A11DB11D209330013E
:1005B0008093310190933201A0933301B0933401C1
:1005C00080912C0190912D01A0912E01B0912F01CD
:1005D0000196A11DB11D80932C0190932D01A09334
:1005E0002E01B0932F01BF91AF919F918F913F91B9
:1005F0002F910F900FBE0F901F901895CF93DF9300
:10060000109244011092430188EE93E0A0E0B0E024
:100610008093450190934601A0934701B093480110
:100620008AE091E0909342018093410185EC90E053
:1006300090934E0180934D0184EC90E09093500193
:1006400080934F0180EC90E0909352018093510190
:1006500081EC90E0909354018093530182EC90E000
:10066000909356018093550186EC90E09093580149
:100670008093570110925A0110925B0110925C0115
:1006800010925D018EE08093DE0181E08093DF01B6
:100690008093E00181E090E0A0E0B0E08093EC0185
:1006A0009093ED01A093EE01B093EF01ECEBF0E03D
:1006B0002491E8EAF0E084918823C1F090E0880F6B
:1006C000991FFC01E057FF4FC591D491FC01EA57F7
:1006D000FF4FA591B4919FB7F8943881822F8095F0
:1006E00083238883EC91E22BEC939FBF8091DE0102
:1006F0000E94EC018093E1019091E001992329F09F
:1007000091E0811190E09093E1010E9415026093C5
:10071000E4017093E5018093E6019093E701209155
:10072000E1012093E2011092E3016093E8017093EC
:10073000E9018093EA019093EB01DF91CF91089555
:10074000CF93DF93CDB7DEB7A7970FB6F894DEBF90
:100750000FBECDBF789484B5826084BD84B58160BE
:1007600084BD85B5826085BD85B5816085BD80917C
:100770006E00816080936E001092810080918100F4
:1007800082608093810080918100816080938100EC
:10079000809180008160809380008091B1008460AE
:1007A0008093B1008091B00081608093B00080910F
:1007B0007A00846080937A0080917A0082608093CE
:1007C0007A0080917A00816080937A0080917A002B
:1007D000806880937A001092C100EAEBF0E02491E7
:1007E000E6EAF0E08491882399F090E0880F991F61
:1007F000FC01E057FF4FA591B491FC01EA57FF4F70
:10080000859194918FB7F894EC91E22BEC938FBF84
:1008100080913A010E94BF01E0915101F091520193
:1008200082E08083E0914D01F0914E011082E091D1
:100830004F01F091500180E1808310925901E091C5
:100840005501F091560186E08083E0915301F091CB
:100850005401808180618083E0915301F0915401C3
:10086000808188608083E0915301F0915401808100
:1008700080688083E0915301F091540180818F7DE5
:100880008083BB24B3948E010F5F1F4F0E9415021B
:100890006B017C01609336017093370180933801BE
:1008A000909339018091DE010E94EC018093350123
:1008B0009091E001992329F091E0811190E09093CB
:1008C00035018091E8019091E901A091EA01B09190
:1008D000EB01B701A601481B590B6A0B7B0B8091FA
:1008E000EC019091ED01A091EE01B091EF0148175C
:1008F00059076A077B0748F4C092E401D092E501EA
:10090000E092E601F092E7011DC08091E101809341
:10091000E201909135019093E101C092E401D092FF
:10092000E501E092E601F092E701981759F0C092D4
:10093000E801D092E901E092EA01F092EB01B09275
:10094000E30102C01092E3018091400180933F01D6
:1009500081E09091E101911101C080E0809340011C
:10096000882381F045E050E068E171E081E491E0A6
:100970000E948C0042E050E06EE171E081E491E081
:100980000E948C0080913F018111A6C0809140019E
:10099000882309F4A1C00E941502C0903B01D090A9
:1009A0003C01E0903D01F0903E012B013C014C18D0
:1009B0005D086E087F081BA21AA21DA21CA21FA21E
:1009C0001EA22AE0A801C301B2010E947305F8012A
:1009D00001900020E9F731977F01E01AF10AB70191
:1009E000CE0182960E942302811105C0CE0182961B
:1009F0000E944A0207C0FFA2EEA2B8018AA19BA1F1
:100A00000E94E7071A8219821C821B821E821D82A5
:100A100069E070E0C8010E942302811104C0C8018E
:100A20000E944A020AC089E090E09E838D8361E2C1
:100A300071E089819A810E94E7078EA19FA1CAA0D7
:100A4000DBA0ED80FE80C114D10409F448C00097FA
:100A500099F0E80EF91EB701C8010E94230288230D
:100A6000F1F129813A818D819E81B601820F931F18
:100A70000E94E707FE82ED824D815E8169817A8165
:100A800081E491E00E948C0042E050E06EE171E070
:100A900081E491E00E948C0089819A810E9477060E
:100AA0008AA19BA10E9477060E94150260933B01D8
:100AB00070933C0180933D0190933E018CEB48166E
:100AC00082E058066104710438F480913A018B2564
:100AD00080933A010E94BF010E948C01D7CEC801C9
:100AE0000E944A02C9CFBB27FA01A62F62177105DF
:100AF00081059105330B30FB66F0AA27660F771F3F
:100B0000881F991FAA1FA21710F0A21B63953850C7
:100B1000A9F7A05DAA3308F0A95DA19336F7B1113A
:100B2000B1931082CA010C949505DC01FC01672F7A
:100B300071917723E1F7329704C07C916D937083B4
:100B40006291AE17BF07C8F308952F923F924F925C
:100B50005F926F927F928F929F92AF92BF92CF924D
:100B6000DF92EF92FF920F931F93CF93DF93CDB756
:100B7000DEB7CA1BDB0B0FB6F894DEBF0FBECDBFCE
:100B800009942A88398848885F846E847D848C849F
:100B90009B84AA84B984C884DF80EE80FD800C81A8
:100BA0001B81AA81B981CE0FD11D0FB6F894DEBF8B
:100BB0000FBECDBFED010895EE0FFF1F0590F4911C
:100BC000E02D0994CF93DF938230910510F482E0F9
:100BD00090E0E091F201F091F30120E030E0C0E01C
:100BE000D0E0309711F14081518148175907C0F08A
:100BF0004817590761F482819381209719F09B83EC
:100C00008A832BC09093F3018093F20126C02115B3
:100C1000310519F04217530718F49A01BE01DF019C
:100C2000EF010280F381E02DDCCF2115310509F1C0
:100C3000281B390B2430310590F412968D919C912C
:100C400013976115710521F0FB019383828304C022
:100C50009093F3018093F201FD01329644C0FD01AF
:100C6000E20FF31F81939193225031092D933C930E
:100C70003AC02091F0013091F101232B41F42091F1
:100C80000201309103013093F1012093F001209192
:100C90000001309101012115310541F42DB73EB716
:100CA0004091040150910501241B350BE091F001A6
:100CB000F091F101E217F307A0F42E1B3F0B281768
:100CC000390778F0AC014E5F5F4F2417350748F0C5
:100CD0004E0F5F1F5093F1014093F0018193919368
:100CE00002C0E0E0F0E0CF01DF91CF9108950F93D3
:100CF0001F93CF93DF93009709F48CC0FC013297C8
:100D0000138212820091F2011091F3010115110575
:100D100081F420813181820F931F2091F001309165
:100D2000F1012817390779F5F093F101E093F0010B
:100D300071C0D80140E050E0AE17BF0750F41296E2
:100D40002D913C911397AD012115310509F1D90180
:100D5000F3CF9D01DA013383228360817181860F95
:100D6000971F8217930769F4EC0128813981260FB8
:100D7000371F2E5F3F4F318320838A819B8193836E
:100D80008283452B29F4F093F301E093F20142C0F2
:100D90001396FC93EE931297ED01499159919E01A0
:100DA000240F351FE217F30771F480819181840FBE
:100DB000951F029611969C938E9382819381139630
:100DC0009C938E931297E0E0F0E0D80112968D91FB
:100DD0009C911397009719F0F8018C01F6CF8D9133
:100DE0009C9198012E5F3F4F820F931F2091F0013D
:100DF0003091F1012817390769F4309729F41092DE
:100E0000F3011092F20102C0138212821093F101D9
:100E10000093F001DF91CF911F910F910895A0E011
:100E2000B0E0E5E1F7E00C94A905EC01009721F4AE
:100E3000CB010E94E205B8C0FC01E60FF71F9C0140
:100E400022503109E217F30708F4ACC0D9010D9123
:100E50001C91119706171707B0F00530110508F41B
:100E60009FC0C80104978617970708F499C00250DD
:100E70001109061B170B019311936D937C93CF01FE
:100E80000E9477068DC05B01A01AB10A4C01800E4A
:100E9000911EA091F201B091F30140E050E0E12CED
:100EA000F12C109709F44AC0A815B905D1F56D9039
:100EB0007C901197630182E0C80ED11CCA14DB0438
:100EC00080F1A3014A195B096A0182E0C80ED11CB6
:100ED0001296BC9012971396AC91B5E0CB16D10444
:100EE00040F0B282A38351834083D9016D937C93F8
:100EF0000AC00E5F1F4FC301800F911FF90191833C
:100F00008083EB2DFA2FE114F10431F0D701139611
:100F1000FC93EE93129744C0F093F301E093F20137
:100F20003FC08D919C9111974817590708F4AC0167
:100F30007D0112960D90BC91A02DB3CF8091F00150
:100F40009091F10188159905E1F446175707C8F407
:100F50008091000190910101009741F48DB79EB7F7
:100F60004091040150910501841B950BE817F90786
:100F7000C8F4F093F101E093F001F901718360830B
:100F80000FC0CB010E94E2057C01009759F0A80137
:100F9000BE010E94DE07CE010E947706C70104C091
:100FA000CE0102C080E090E0CDB7DEB7EEE00C9459
:100FB000C50581E090E0F8940C94EE07FB01DC019C
:100FC00002C001900D9241505040D8F70895FB01A6
:100FD000DC0101900D920020E1F70895F894FFCF15
:100FE0000000F40180000000000023018C00BB0021
:100FF0006A01EC00CA00DE007072657373000D0AAE
:0C100000006475726174696F6E2000005E
:00000001FF
