:100000000C9462000C948A000C948A000C948A0070
:100010000C948A000C948A000C948A000C948A0038
:100020000C948A000C948A000C948A000C948A0028
:100030000C948A000C948A000C948A000C948A0018
:100040000C94B4020C948A000C9482020C945C020E
:100050000C948A000C948A000C948A000C948A00F8
:100060000C948A000C948A000000000023002600F3
:10007000290000000008000201000003040700003E
:1000800000000000000000000000250028002B00F8
:1000900000000000240027002A00040404040404D3
:1000A0000404020202020202030303030303010227
:1000B00004081020408001020408102001020408F6
:1000C0001020FE0211241FBECFEFD8E0DEBFCDBF4F
:1000D00021E0A2E2B1E001C01D92AA3EB207E1F721
:1000E00011E0A0E0B1E0E4EBFFE002C005900D926A
:1000F000A232B107D9F710E0C2E6D0E004C02197E0
:10010000FE010E94C605C136D107C9F70E94A003AF
:100110000C94D8070C940000CF92DF92EF92FF92DC
:100120000F931F93CF93DF936C017A018B01C0E093
:10013000D0E0CE15DF0589F0D8016D918D01D60193
:10014000ED91FC910190F081E02DC6010995892B7C
:1001500011F47E0102C02196ECCFC701DF91CF914F
:100160001F910F91FF90EF90DF90CF900895089529
:1001700080E090E00895FC01538D448D252F30E000
:10018000842F90E0821B930B541710F0CF960895A4
:1001900001970895FC01918D828D981761F0828DF1
:1001A000DF01A80FB11D5D968C91928D9F5F9F73AB
:1001B000928F90E008958FEF9FEF0895FC01918D4D
:1001C000828D981731F0828DE80FF11D858D90E0BA
:1001D00008958FEF9FEF0895FC01918D228D892F57
:1001E00090E0805C9F4F821B91098F73992708953F
:1001F00087E391E00E94EC0021E0892B09F420E0E4
:10020000822F0895FC01848DDF01A80FB11DA35A30
:10021000BF4F2C91848D90E001968F739927848F26
:10022000A689B7892C93A089B1898C9180648C931D
:10023000938D848D981306C00288F389E02D808108
:100240008F7D80830895EF92FF920F931F93CF933A
:10025000DF93EC0181E0888F9B8D8C8D981305C016
:10026000E889F989808185FD24C0F62E0B8D10E088
:100270000F5F1F4F0F731127E02E8C8DE8120CC0FB
:100280000FB607FCFACFE889F989808185FFF5CFA1
:10029000CE010E940201F1CF8B8DFE01E80FF11D0E
:1002A000E35AFF4FF0820B8FEA89FB8980818062DD
:1002B00007C0EE89FF896083E889F98980818064BD
:1002C000808381E090E0DF91CF911F910F91FF90AB
:1002D000EF900895CF93DF93EC01888D8823C9F0C8
:1002E000EA89FB89808185FD05C0A889B9898C913F
:1002F00086FD0FC00FB607FCF5CF808185FFF2CFDA
:10030000A889B9898C9185FFEDCFCE010E940201A9
:10031000E7CFDF91CF91089580E090E0892B29F01D
:100320000E94F80081110C9400000895833081F040
:1003300028F4813099F08230A1F008958730A9F037
:100340008830B9F08430D1F4809180008F7D03C073
:10035000809180008F7780938000089584B58F7797
:1003600002C084B58F7D84BD08958091B0008F77E1
:1003700003C08091B0008F7D8093B00008951F93DB
:10038000CF93DF93EEE7F0E09491EAEBF0E0D491C5
:10039000E6EAF0E0C491CC23D9F0182F992319F0A4
:1003A000892F0E949601EC2FF0E0EE0FFF1FEA5715
:1003B000FF4FA591B4918FB7F894111105C09C918E
:1003C000ED2FE095E92302C0EC91ED2BEC938FBF6C
:1003D000DF91CF911F910895CF93DF93282F30E0C5
:1003E000F901EE58FF4F8491F901E255FF4FD49186
:1003F000F901E656FF4FC491CC2391F081110E9480
:100400009601EC2FF0E0EE0FFF1FE859FF4FA5918A
:10041000B491EC91ED2381E090E021F480E002C002
:1004200080E090E0DF91CF9108952FB7F89460912C
:100430002701709128018091290190912A012FBFF5
:1004400008950E94C3070F931F93CF93DF93EC018E
:1004500088819981009729F02A813B8126173707E7
:1004600088F48B016F5F7F4F0E94F906009761F05F
:10047000998388831B830A832C813D81232B11F46C
:10048000FC01108281E001C080E0DF91CF911F91DB
:100490000F910895CF93DF93EC01888199810097A4
:1004A00011F00E946106198218821D821C821B8233
:1004B0001A82DF91CF9108951F920F920FB60F927B
:1004C00011242F933F934F935F936F937F938F9359
:1004D0009F93AF93BF93EF93FF9387E391E00E94C5
:1004E0000201FF91EF91BF91AF919F918F917F9109
:1004F0006F915F914F913F912F910F900FBE0F9091
:100500001F9018951F920F920FB60F9211242F93E0
:100510008F939F93EF93FF93E0914701F0914801F0
:100520008081E0914D01F0914E0182FD12C09081D9
:10053000809150018F5F8F7320915101821751F08C
:10054000E0915001F0E0E95CFE4F958F80935001FF
:1005500001C08081FF91EF919F918F912F910F901A
:100560000FBE0F901F9018951F920F920FB60F920B
:1005700011242F933F938F939F93AF93BF938091B9
:10058000270190912801A0912901B0912A01309171
:10059000260123E0230F2D3720F40196A11DB11D64
:1005A00005C026E8230F0296A11DB11D2093260148
:1005B0008093270190932801A0932901B0932A01E9
:1005C0008091220190912301A0912401B0912501F5
:1005D0000196A11DB11D8093220190932301A09348
:1005E0002401B0932501BF91AF919F918F913F91CD
:1005F0002F910F900FBE0F901F901895CF93DF9300
:1006000010923A011092390188EE93E0A0E0B0E038
:1006100080933B0190933C01A0933D01B0933E0138
:100620008AE091E0909338018093370185EC90E067
:10063000909344018093430184EC90E090934601B1
:100640008093450180EC90E09093480180934701AE
:1006500081EC90E090934A018093490182EC90E014
:1006600090934C0180934B0186EC90E090934E0167
:1006700080934D011092500110925101109252013D
:100680001092530188E08093D40181E08093D501DA
:100690001092D6018AE090E0A0E0B0E08093E20101
:1006A0009093E301A093E401B093E501E6EBF0E061
:1006B0002491E2EAF0E084918823C1F090E0880F71
:1006C000991FFC01E057FF4FC591D491FC01EA57F7
:1006D000FF4FA591B4919FB7F8943881822F8095F0
:1006E00083238883EC91E22BEC939FBF8091D4010C
:1006F0000E94EC018093D7019091D601992329F0B3
:1007000091E0811190E09093D7010E9415026093CF
:10071000DA017093DB018093DC019093DD0120917D
:10072000D7012093D8011092D9016093DE01709314
:10073000DF018093E0019093E101DF91CF91089573
:10074000CF93DF93CDB7DEB7A7970FB6F894DEBF90
:100750000FBECDBF789484B5826084BD84B58160BE
:1007600084BD85B5826085BD85B5816085BD80917C
:100770006E00816080936E001092810080918100F4
:1007800082608093810080918100816080938100EC
:10079000809180008160809380008091B1008460AE
:1007A0008093B1008091B00081608093B00080910F
:1007B0007A00846080937A0080917A0082608093CE
:1007C0007A0080917A00816080937A0080917A002B
:1007D000806880937A001092C100EAEBF0E02491E7
:1007E000E6EAF0E08491882399F090E0880F991F61
:1007F000FC01E057FF4FA591B491FC01EA57FF4F70
:10080000859194918FB7F894EC91E22BEC938FBF84
:10081000809130010E94BF01E0914701F0914801B1
:1008200082E08083E0914301F09144011082E091E5
:100830004501F091460180E1808310924F01E091E3
:100840004B01F0914C0186E08083E0914901F091E9
:100850004A01808180618083E0914901F0914A01E1
:10086000808188608083E0914901F0914A01808114
:1008700080688083E0914901F0914A0180818F7DF9
:100880008083BB24B3948E010F5F1F4F0E9415021B
:100890006B017C0160932C0170932D0180932E01DC
:1008A00090932F018091D4010E94EC0180932B0141
:1008B0009091D601992329F091E0811190E09093D5
:1008C0002B018091DE019091DF01A091E001B091B8
:1008D000E101B701A601481B590B6A0B7B0B809104
:1008E000E2019091E301A091E401B091E501481784
:1008F00059076A077B0748F4C092DA01D092DB01FE
:10090000E092DC01F092DD011DC08091D70180935F
:10091000D80190912B019093D701C092DA01D09227
:10092000DB01E092DC01F092DD01981759F0C092F2
:10093000DE01D092DF01E092E001F092E101B0929D
:10094000D90102C01092D9019091360190933501DE
:1009500081E02091D701211101C080E08093360110
:100960009111A4C0882309F4A1C00E941502C0906F
:100970003101D0903201E0903301F09034012B012D
:100980003C014C185D086E087F081BA21AA21DA22C
:100990001CA21FA21EA22AE0A801C301B2010E944C
:1009A0005D05F80101900020E9F731977F01E01A19
:1009B000F10AB701CE0182960E942302811105C07F
:1009C000CE0182960E944A0207C0FFA2EEA2B801A1
:1009D0008AA19BA10E94D1071A8219821C821B82C4
:1009E0001E821D8266E070E0C8010E942302811110
:1009F00004C0C8010E944A020AC086E090E09E83BB
:100A00008D8368E171E089819A810E94D1078EA16E
:100A10009FA1CAA0DBA0ED80FE80C114D10409F41F
:100A200048C0009799F0E80EF91EB701C8010E946E
:100A300023028823F1F129813A818D819E81B601BB
:100A4000820F931F0E94D107FE82ED824D815E814D
:100A500069817A8187E391E00E948C0042E050E056
:100A60006FE171E087E391E00E948C0089819A81B7
:100A70000E9461068AA19BA10E9461060E94150244
:100A8000609331017093320180933301909334016C
:100A900084EF481681E058066104710438F48091AF
:100AA00030018B25809330010E94BF010E948C0190
:100AB000EDCEC8010E944A02C9CFBB27FA01A62F7A
:100AC0006217710581059105330B30FB66F0AA278B
:100AD000660F771F881F991FAA1FA21710F0A21B6D
:100AE00063953850A9F7A05DAA3308F0A95DA193DA
:100AF00036F7B111B1931082CA010C947F05DC0165
:100B0000FC01672F71917723E1F7329704C07C9144
:100B10006D9370836291AE17BF07C8F308952F924B
:100B20003F924F925F926F927F928F929F92AF927D
:100B3000BF92CF92DF92EF92FF920F931F93CF93CA
:100B4000DF93CDB7DEB7CA1BDB0B0FB6F894DEBF61
:100B50000FBECDBF09942A88398848885F846E8487
:100B60007D848C849B84AA84B984C884DF80EE80D1
:100B7000FD800C811B81AA81B981CE0FD11D0FB6DA
:100B8000F894DEBF0FBECDBFED010895EE0FFF1F3D
:100B90000590F491E02D0994CF93DF938230910575
:100BA00010F482E090E0E091E801F091E90120E0AA
:100BB00030E0C0E0D0E0309711F14081518148171A
:100BC0005907C0F04817590761F482819381209733
:100BD00019F09B838A832BC09093E9018093E801ED
:100BE00026C02115310519F04217530718F49A0150
:100BF000BE01DF01EF010280F381E02DDCCF211582
:100C0000310509F1281B390B2430310590F4129677
:100C10008D919C9113976115710521F0FB019383D0
:100C2000828304C09093E9018093E801FD0132962C
:100C300044C0FD01E20FF31F8193919322503109CB
:100C40002D933C933AC02091E6013091E701232B8C
:100C500041F420910201309103013093E701209388
:100C6000E60120910001309101012115310541F487
:100C70002DB73EB74091040150910501241B350B5F
:100C8000E091E601F091E701E217F307A0F42E1BD3
:100C90003F0B2817390778F0AC014E5F5F4F2417E0
:100CA000350748F04E0F5F1F5093E7014093E60170
:100CB0008193919302C0E0E0F0E0CF01DF91CF910A
:100CC00008950F931F93CF93DF93009709F48CC07F
:100CD000FC013297138212820091E8011091E90120
:100CE0000115110581F420813181820F931F20911C
:100CF000E6013091E7012817390779F5F093E7010C
:100D0000E093E60171C0D80140E050E0AE17BF07A4
:100D100050F412962D913C911397AD012115310598
:100D200009F1D901F3CF9D01DA0133832283608178
:100D30007181860F971F8217930769F4EC01288150
:100D40003981260F371F2E5F3F4F318320838A81E1
:100D50009B8193838283452B29F4F093E901E093EF
:100D6000E80142C01396FC93EE931297ED0149916E
:100D700059919E01240F351FE217F30771F480810A
:100D80009181840F951F029611969C938E93828178
:100D9000938113969C938E931297E0E0F0E0D80134
:100DA00012968D919C911397009719F0F8018C0180
:100DB000F6CF8D919C9198012E5F3F4F820F931F2C
:100DC0002091E6013091E7012817390769F430973F
:100DD00029F41092E9011092E80102C013821282F4
:100DE0001093E7010093E601DF91CF911F910F91DE
:100DF0000895A0E0B0E0EFEFF6E00C949305EC016D
:100E0000009721F4CB010E94CC05B8C0FC01E60F8D
:100E1000F71F9C0122503109E217F30708F4ACC018
:100E2000D9010D911C91119706171707B0F00530E5
:100E3000110508F49FC0C80104978617970708F4A6
:100E400099C002501109061B170B019311936D9362
:100E50007C93CF010E9461068DC05B01A01AB10A8C
:100E60004C01800E911EA091E801B091E90140E093
:100E700050E0E12CF12C109709F44AC0A815B905EF
:100E8000D1F56D907C901197630182E0C80ED11C62
:100E9000CA14DB0480F1A3014A195B096A0182E0EC
:100EA000C80ED11C1296BC9012971396AC91B5E067
:100EB000CB16D10440F0B282A38351834083D90181
:100EC0006D937C930AC00E5F1F4FC301800F911F6B
:100ED000F90191838083EB2DFA2FE114F10431F0B5
:100EE000D7011396FC93EE93129744C0F093E90157
:100EF000E093E8013FC08D919C91119748175907E5
:100F000008F4AC017D0112960D90BC91A02DB3CFD9
:100F10008091E6019091E70188159905E1F4461763
:100F20005707C8F48091000190910101009741F4A6
:100F30008DB79EB74091040150910501841B950B1C
:100F4000E817F907C8F4F093E701E093E601F90127
:100F5000718360830FC0CB010E94CC057C01009798
:100F600059F0A801BE010E94C807CE010E94610687
:100F7000C70104C0CE0102C080E090E0CDB7DEB76B
:100F8000EEE00C94AF0581E090E0F8940C94D80763
:100F9000FB01DC0102C001900D9241505040D8F796
:100FA0000895FB01DC0101900D920020E1F7089506
:040FB000F894FFCFE3
:100FB4000000EA0180000000000023018C00BB0057
:100FC4006A01EC00CA00DE00707265737320000DC4
:020FD4000A0011
:00000001FF
